:020000000C945E
:100002003D000C9400000C9400000C9400000C9431
:1000120000000C9400000C9400000C9400000C945E
:1000220000000C9400000C9400000C9400000C944E
:1000320000000C9479000C9400000C9400000C94C5
:1000420000000C9400000C9400000C9400000C942E
:1000520000001027E80364000A00010000100001FC
:100062001000010000000000000001000200660014
:100072000400060068000000F894EE27ECBBF1E0F3
:10008200FBBFEBBFE5BF8DE0A2E0BB27ED938A95F6
:10009200E9F780E098E0A0E6ED930197E9F7ECE656
:1000A200F0E085919591009761F0A591B591059049
:1000B2001590BF01F00105900D920197E1F7FB0148
:1000C200F0CFEFE5EDBFE8E0EEBFC0E6D2E00C9482
:1000D200DF00AA93E881E064E7B98BE18A95F1F742
:1000E200369A349BFECF349AE4B1F5B12196089545
:1000F2000A921A92FA926A937A938A939A93AA9399
:10010200BA93EA93FA93EFB7EA931A930A931BB15D
:100112000CB1E12FEC7189F4E72D7394F0E0E05A11
:10012200FD4F0083E8E0E71509F477249394E8E0B3
:10013200E91519F49924689420F80E94000170F1DD
:10014200E02FF0E0E634A0E0FA0731F4A99B02C008
:10015200A99801C0A99A22C0EC34A0E0FA0731F4B0
:10016200A89B02C0A89801C0A89A18C0E035A0E0D8
:10017200FA0711F4E0EA11C0E735A0E0FA0711F43A
:10018200E0EE0BC0E234A0E0FA0711F4E0E005C0B3
:10019200E734A0E0FA0711F4E0E4E2BB0991199117
:1001A200E991EFBFF991E991B991A9919991899159
:1001B20079916991F990199009901895E3E0E4BB5F
:1001C200E0EEE1BBE0E8E8B9E0E4E7B9E6E8E6B989
:1001D200E0E0EBB9E8E9EAB9E6E8E0BDE0E0E0BD7D
:1001E200E3E3E9B978940E94000138F4E5E4ECB95C
:1001F200E6EFF2E04E165F06D8F3F5CFFFCFA0E0B0
:100202000E946A002F01E6EFF2E04E165F060895A3
:00000001FF
