:0E0000000C943A000C9400000C9400000C9438
:10000E0000000C9400000C9400000C9400000C9462
:10001E0000000C9400000C94EE000C9400000C9464
:10002E0000000C9400000C9400000C9400000C9442
:10003E0000000C9400000C9400000C9400000C9432
:10004E0000000C940000FF00000000000000C0F94A
:10005E00A4B0999282F880900800040054000A001F
:10006E0060025C000000F894EE27ECBBF1E0FBBFF1
:10007E00EBBFE5BF8DE0A2E0BB27ED938A95E9F7D4
:10008E0080E098E0A0E6ED930197E9F7E6E6F0E070
:10009E0085919591009761F0A591B5910590159078
:1000AE00BF01F00105900D920197E1F7FB01F0CF32
:1000BE00EFE5EDBFE8E0EEBFC0E6D2E00C94320112
:1000CE00ECE0E5BB809905C0809BFECFE1E0F0E05F
:1000DE000895819905C0819BFECFE4E0F0E008957C
:1000EE00829905C0829BFECFE7E0F0E008958399E8
:1000FE0005C0839BFECFE8ECF0E00895EAE0E5BB97
:10010E00809905C0809BFECFE2E0F0E008958199D2
:10011E0005C0819BFECFE5E0F0E00895829905C011
:10012E00829BFECFE8E0F0E00895839905C0839BA3
:10013E00FECFE0E0F0E00895E6E0E5BB809905C073
:10014E00809BFECFE3E0F0E00895819905C0819B8E
:10015E00FECFE6E0F0E00895829905C0829BFECFC7
:10016E00E9E0F0E00895839905C0839BFECFE4E6B5
:10017E00F0E00895EFE0E2BBEFEFF0E00895E8EC79
:10018E00F0E0E415F50511F19BDF2F01EAE0F0E058
:10019E004E165F0674F4F501AAE0B0E00E94B101BC
:1001AE00E40DF51D5F01D501E0E1F7E20E94CC01FF
:1001BE005F01E1E07BD086D0E2E078D08DD0E4E044
:1001CE0095D080D0E8E092D087D0D9CF08950A920A
:1001DE001A929A93AA93BA93EA93FA93EFB7EA9381
:1001EE00A89B02C0A89801C0A89AF40131964F01AD
:1001FE00E2E0F0E0E815F90501F5F30131963F0173
:10020E00EBE3F0E0E615F705B4F466247724F60187
:10021E0031966F0177D0FC9770F07AD0A4E6B0E0FB
:10022E000E94B1016F01EC59FF4F6F0171D07897A9
:10023E0010F0CC24DD2488249924E2ECEDBDE7EF08
:10024E00ECBDE991EFBFF991E991B991A99199911D
:10025E00199009901895EFEFEABBEFE0E7BBE4BB0E
:10026E00E2BB8DDF65017894E4E0EEBDE2ECEDBD1E
:10027E00E7EFECBDE4E0E9BFE1E0E8BBEFEFEBBB9D
:10028E0047D04CD0E2E0E8BBEFEFEBBB41D054D00F
:10029E00E4E0E8BBEFEFEBBB35D040D0E8E0E8BBE5
:1002AE00EFEFEBBB2FD048D0E7CFFFCFE8BBEFEFA0
:1002BE00EBBBD501E4E6F0E00E94B901DF01EAE014
:1002CE00F0E008950E94B901E05AFD4FE081EBBBCA
:1002DE008DE08A95F1F708950E94CC01E05AFD4F0A
:1002EE00E081EBBB8DE08A95F1F70895E8BBEFEF67
:1002FE00EBBBD501E4E6F0E00E94CC01DF01EAE0C1
:10030E00F0E00895D601E4E6F0E00E94CC010895F5
:10031E00D601E4E6F0E00E94B9010895DF01EAE0BB
:10032E00F0E00E94B901E05AFD4FE081EBBB88EC92
:10033E0090E00197F1F70895DF01EAE0F0E00E9406
:10034E00CC01E05AFD4FE081EBBB88EC90E00197C9
:10035E00F1F70895FA9FF02DEB9FF00DEA9FE02D37
:10036E00F10D08950024112490E1AA0FBB1F001C6B
:10037E00111C0E1A1F0A18F40E0E1F1E01C0A160CA
:10038E009A9599F7FD01D0010895ECDFFD010895CE
:00000001FF
