:040000000C942F002D
:100004000C9400000C9400000C9400000C9400006C
:100014000C9400000C9400000C9400000C9400005C
:100024000C9400000C9400000C945C000C940000F0
:100034000C9400000C9400000C9400000C946100DB
:100044000C9400000C9400000C9400000C9400002C
:100054002E000100050054000000F894EE27ECBBCC
:10006400F1E0FBBFEBBFE5BF8DE0A2E0BB27ED9362
:100074008A95E9F780E098E0A0E6ED930197E9F727
:10008400E6E5F0E085919591009761F0A591B59131
:1000940005901590BF01F00105900D920197E1F7CD
:1000A400FB01F0CFEFE5EDBFE8E0EEBFC0E6D2E044
:1000B4000C948500EA93E6E0E2BFE991189584B0D8
:1000C40095B01895E5B7EF78E069E5BF8895EF77C7
:1000D400E5BFF4010895E0E00EC0E8E3E2BBFBDF16
:1000E400ECE0E2BBF8DFE1E0E2BBF5DFE6E0E2BB37
:1000F400F2DF0895E1E0E5BBA2E0B0E00E94F10088
:10010400E4E0E5BB0895EFEFE4BBE4E0E5BBEFEF2B
:10011400E1BBE0E8E8B9E0E4E7B9EEEAE6B9E0E833
:10012400E0BFE5E0E3BFE6E0E2BFE1E0E9BF7894E9
:10013400D4DFC8DFA0E6B2E0662777270E9461011A
:100144000E94450243D0A0E0B0E080EA90E40E941F
:100154008F01DF01CB01E0E0F0EC6FE774E40E9473
:10016400DD01E0936002F093610260936202709398
:100174006302E0E8E2BBAFDF29D00E9428013F011F
:10018400E05DE2BBB7DFE1E8E2BBA5DF52BAB2DF74
:10019400E2E8E2BBA0DFA0916002B091610280912D
:1001A400620290916302E0E0F0E060E271E40E9498
:1001B4008F010E9428013F01D301EAE0F0E00E9490
:1001C4004202E05DE2BB96DFB4CFFFCFE091600274
:1001D400F091610260916202709163020895109639
:1001E40039F080ED97E00197F1F7A8951197C9F7D9
:1001F4000895552342F4503811F4E0FF04C03196B9
:10020400691F791F6BF050E8572711F45F9373C08F
:100214005F3F31F0660F000C57956795752F089571
:100224005F9300200AF073C06CC050E8192E1522A9
:10023400880F991F9527550F879550E8072E05229B
:10024400660F771F7527550F67950895689401C049
:10025400E8945F93F2DF703818F07F3F08F44BC0E6
:1002640056E1571BAAF4519558300EF4593030F02A
:10027400EFEFFFEF6FEF7FE777F91AC0772755238A
:10028400B9F0EE0FFF1F661F771F5A95D1F710C004
:100294007727583028F0EF2FF62F672F5850F9CFD3
:1002A400552331F076956795F795E7955A95D1F7EB
:1002B40000200AF4C5D05F910895689401C0E894C1
:1002C400309760407040B1F0002426F0772312F498
:1002D4000094B6D0172E7EE1112032F07A95EE0FFD
:1002E400FF1F661F111CF9CFEF2FF62F612D5F93AF
:1002F4008ADF5F910895EE27FF27662777275F91AE
:100304000895EFEFFFEF6FE77FEF5F910895EFEF51
:10031400FFEF6FE77FE75F9108955F9386DF7038A3
:1003240051F3903841F301240894791F23F41CF30A
:1003340000203AF3ECCF0F921F932F933F934F93E8
:10034400112722279927689FA0018F9F302D410DE7
:10035400591F6B9F300D411D591F8E9F27D0BF9F82
:1003640025D06A9F23D0BE9F1DD0AF9F1BD0AE9FC8
:10037400110D291F391F491F591FE32FF42F652F12
:10038400522F4F913F912F911F910F9066232AF086
:10039400550FEE1FFF1F661F02C073954BF229DF36
:1003A4005F910895100D211D391F02C0200D311DCC
:1003B400491F591F08955F9338DF703821F41120C5
:1003C4000AF49FCFA4CF903809F495CF0124089460
:1003D400970B1BF4D4F30020F3CF792F1F932F93A3
:1003E4003F934F931124112722273327442755275E
:1003F40090E2AE17BF078607410730F0AE1BBF0B74
:10040400860B410B089401C08894551F221F331F8B
:10041400111CAA1FBB1F881F441F9A9551F7F9018D
:10042400612D4F913F912F911F91662332F0550F0B
:10043400EE1FFF1F661F7A9543F2DBDE5F9108957E
:10044400F09560957095E195FF4F6F4F7F4F08953C
:100454006F2F660F660B762F08950024112490E108
:10046400AA0FBB1F001C111C0E1A1F0A18F40E0E33
:100474001F1E01C0A1609A9599F7FD01D00108954E
:10048400ECDFFD010895ED93FD936D937C93089546
:00000001FF
